:020000040800F2
:1000000000500020851E00080D1E0008131E000869
:10001000191E00081F1E0008251E00080000000011
:10002000000000000000000000000000E162000885
:100030002B1E000800000000C1640008371E0008E5
:10004000CD1E0008CD1E0008CD1E0008CD1E0008E4
:10005000CD1E0008CD1E0008CD1E0008CD1E0008D4
:10006000CD1E0008CD1E0008CD1E0008CD1E0008C4
:10007000CD1E0008CD1E0008CD1E0008CD1E0008B4
:10008000CD1E0008CD1E0008CD1E0008CD1E0008A4
:10009000CD1E0008CD1E0008CD1E0008CD1E000894
:1000A000CD1E0008CD1E0008CD1E0008511E000800
:1000B000CD1E0008CD1E0008CD1E0008CD1E000874
:1000C000CD1E0008CD1E0008CD1E0008CD1E000864
:1000D000CD1E0008CD1E0008CD1E0008651E0008BC
:1000E000CD1E0008CD1E0008CD1E00080000000037
:1000F0000000000000000000000000000000000000
:0C01000000000000000000005FF808F1A3
:1001100010B5054C237833B9044B13B10448AFF341
:1001200000800123237010BD780000200000000033
:10013000186B000808B5034B1BB103490348AFF324
:10014000008008BD000000007C000020186B000843
:1001500081F0004102E000BF83F0004330B54FEA78
:1001600041044FEA430594EA050F08BF90EA020FE5
:100170001FBF54EA000C55EA020C7FEA645C7FEA78
:10018000655C00F0E2804FEA5454D4EB5555B8BF9B
:100190006D420CDD2C4480EA020281EA030382EA0C
:1001A000000083EA010180EA020281EA0303362D9E
:1001B00088BF30BD11F0004F4FEA01314FF4801C71
:1001C0004CEA113102D0404261EB410113F0004F83
:1001D0004FEA03334CEA133302D0524263EB43033A
:1001E00094EA050F00F0A780A4F10104D5F1200ED8
:1001F0000DDB02FA0EFC22FA05F2801841F1000133
:1002000003FA0EF2801843FA05F359410EE0A5F106
:1002100020050EF1200E012A03FA0EFC28BF4CF037
:10022000020C43FA05F3C01851EBE37101F00045ED
:1002300007D54FF0000EDCF1000C7EEB00006EEBFA
:100240000101B1F5801F1BD3B1F5001F0CD3490884
:100250005FEA30004FEA3C0C04F101044FEA4452DB
:1002600012F5800F80F09A80BCF1004F08BF5FEA62
:10027000500C50F1000041EB045141EA050130BD42
:100280005FEA4C0C404141EB0101013C28BFB1F554
:10029000801FE9D291F0000F04BF01460020B1FA9F
:1002A00081F308BF2033A3F10B03B3F120020CDA72
:1002B0000C3208DD02F1140CC2F10C0201FA0CF050
:1002C00021FA02F10CE002F11402D8BFC2F1200CB5
:1002D00001FA02F120FA0CFCDCBF41EA0C0190406B
:1002E000E41AA2BF01EB0451294330BD6FEA0404B4
:1002F0001F3C1CDA0C340EDC04F11404C4F120029F
:1003000020FA04F001FA02F340EA030021FA04F3B0
:1003100045EA030130BDC4F10C04C4F1200220FA07
:1003200002F001FA04F340EA0300294630BD21FA45
:1003300004F0294630BD94F0000F83F4801306BF0B
:1003400081F480110134013D4EE77FEA645C18BFFF
:100350007FEA655C29D094EA050F08BF90EA020F96
:1003600005D054EA000C04BF1946104630BD91EA8E
:10037000030F1EBF0021002030BD5FEA545C05D191
:100380004000494128BF41F0004130BD14F58004D0
:100390003CBF01F5801130BD01F0004545F0FE4144
:1003A00041F470014FF0000030BD7FEA645C1ABF79
:1003B000194610467FEA655C1CBF0B46024650EAB0
:1003C000013406BF52EA033591EA030F41F40021DC
:1003D00030BD00BF90F0000F04BF0021704730B562
:1003E0004FF4806404F132044FF000054FF0000137
:1003F00050E700BF90F0000F04BF0021704730B5F8
:100400004FF4806404F1320410F0004548BF4042CC
:100410004FF000013EE700BF42004FEAE2014FEA21
:1004200031014FEA02701FBF12F07F4393F07F4FFC
:1004300081F06051704732F07F4208BF704793F0FF
:100440007F4F04BF41F40021704730B54FF4607412
:1004500001F0004521F000411CE700BF50EA010215
:1004600008BF704730B54FF000050AE050EA0102BE
:1004700008BF704730B511F0004502D5404261EB2E
:1004800041014FF4806404F132045FEA915C3FF46F
:10049000D8AE4FF003025FEADC0C18BF03325FEA0C
:1004A000DC0C18BF033202EBDC02C2F1200300FABD
:1004B00003FC20FA02F001FA03FE40EA0E0021FAE2
:1004C00002F11444BDE600BF70B54FF0FF0C4CF4D0
:1004D000E06C1CEA11541DBF1CEA135594EA0C0F82
:1004E00095EA0C0F00F0DEF82C4481EA030621EABD
:1004F0004C5123EA4C5350EA013518BF52EA0335F8
:1005000041F4801143F4801338D0A0FB02CE4FF0A9
:100510000005E1FB02E506F00042E0FB03E54FF0D9
:100520000006E1FB03569CF0000F18BF4EF0010ED1
:10053000A4F1FF04B6F5007F64F5407404D25FEACD
:100540004E0E6D4146EB060642EAC62141EA555180
:100550004FEAC52040EA5E504FEACE2EB4F1FD0CC2
:1005600088BFBCF5E06F1ED8BEF1004F08BF5FEA40
:10057000500E50F1000041EB045170BD06F00046F2
:1005800046EA010140EA020081EA0301B4EB5C049F
:10059000C2BFD4EB0C0541EA045170BD41F4801197
:1005A0004FF0000E013C00F3AB8014F1360FDEBFBC
:1005B000002001F0004170BDC4F10004203C35DA98
:1005C0000C341BDC04F11404C4F1200500FA05F31B
:1005D00020FA04F001FA05F240EA020001F00042BC
:1005E00021F0004110EBD37021FA04F642EB060132
:1005F0005EEA430E08BF20EAD37070BDC4F10C045C
:10060000C4F1200500FA04F320FA05F001FA04F21F
:1006100040EA020001F0004110EBD37041F100010B
:100620005EEA430E08BF20EAD37070BDC4F1200516
:1006300000FA05F24EEA020E20FA04F301FA05F27E
:1006400043EA020321FA04F001F0004121FA04F226
:1006500020EA020000EBD3705EEA430E08BF20EAF6
:10066000D37070BD94F0000F0FD101F00046400030
:1006700041EB010111F4801F08BF013CF7D041EAB2
:10068000060195F0000F18BF704703F000465200B6
:1006900043EB030313F4801F08BF013DF7D043EA87
:1006A0000603704794EA0C0F0CEA135518BF95EA3D
:1006B0000C0F0CD050EA410618BF52EA4306D1D1C4
:1006C00081EA030101F000414FF0000070BD50EAE3
:1006D000410606BF1046194652EA430619D094EA6D
:1006E0000C0F02D150EA013613D195EA0C0F05D157
:1006F00052EA03361CBF104619460AD181EA0301AB
:1007000001F0004141F0FE4141F470014FF0000062
:1007100070BD41F0FE4141F4780170BD70B54FF0FD
:10072000FF0C4CF4E06C1CEA11541DBF1CEA13557D
:1007300094EA0C0F95EA0C0F00F0A7F8A4EB05045F
:1007400081EA030E52EA03354FEA013100F0888056
:100750004FEA03334FF0805545EA131343EA12631F
:100760004FEA022245EA111545EA10654FEA0026D4
:100770000EF000419D4208BF964244F1FD0404F58D
:10078000407402D25B084FEA3202B61A65EB0305E9
:100790005B084FEA32024FF480104FF4002CB6EBA6
:1007A000020E75EB030E22BFB61A754640EA0C0026
:1007B0005B084FEA3202B6EB020E75EB030E22BF66
:1007C000B61A754640EA5C005B084FEA3202B6EBA7
:1007D000020E75EB030E22BFB61A754640EA9C0066
:1007E0005B084FEA3202B6EB020E75EB030E22BF36
:1007F000B61A754640EADC0055EA060E18D04FEAF4
:10080000051545EA16754FEA06164FEAC30343EA93
:1008100052734FEAC2025FEA1C1CC0D111F4801F60
:100820000BD141EA00014FF000004FF0004CB6E759
:1008300011F4801F04BF01430020B4F1FD0C88BFF8
:10084000BCF5E06F3FF6AFAEB5EB030C04BFB6EB03
:10085000020C5FEA500C50F1000041EB045170BDF6
:100860000EF0004E4EEA113114EB5C04C2BFD4EB23
:100870000C0541EA045170BD41F480114FF0000EA7
:10088000013C90E645EA060E8DE60CEA135594EA23
:100890000C0F08BF95EA0C0F3FF43BAF94EA0C0F26
:1008A0000AD150EA01347FF434AF95EA0C0F7FF49B
:1008B00025AF104619462CE795EA0C0F06D152EAEF
:1008C00003353FF4FDAE1046194622E750EA4106D3
:1008D00018BF52EA43067FF4C5AE50EA41047FF4E4
:1008E0000DAF52EA43057FF4EBAE12E74FEA410247
:1008F000B2F1E04324BFB3F5001CDCF1FE5C0DD97E
:1009000001F0004C4FEAC0024CEA5070B2F1004FC7
:1009100040EB830008BF20F00100704711F0804FCA
:1009200021D113F13872BCBF01F00040704741F48F
:1009300080114FEA5252C2F11802C2F1200C10FA93
:100940000CF320FA02F018BF40F001004FEAC12377
:100950004FEAD32303FA0CFC40EA0C0023FA02F31B
:100960004FEA4303CCE77FEA625307D150EA0133F1
:100970001EBF4FF0FE4040F44000704701F00040C1
:1009800040F0FE4040F40000704700BF4FF0FF3CD5
:1009900006E000BF4FF0010C02E000BF4FF0010C79
:1009A0004DF804CD4FEA40024FEA41037FEA226C42
:1009B00018BF7FEA236C11D001B052EA530C18BF64
:1009C00090EA010F58BFB2EB030088BFC81738BFC9
:1009D0006FEAE17018BF40F0010070477FEA226CB7
:1009E00002D15FEA402C05D17FEA236CE4D15FEAB3
:1009F000412CE1D05DF8040B704700BF84460846E7
:100A00006146FFE70FB5FFF7C9FF002848BF10F1A7
:100A1000000F0FBD4DF808EDFFF7F4FF0CBF0120EC
:100A200000205DF808FB00BF4DF808EDFFF7EAFF76
:100A300034BF012000205DF808FB00BF4DF808ED31
:100A4000FFF7E0FF94BF012000205DF808FB00BF26
:100A50004DF808EDFFF7D2FF94BF012000205DF8AC
:100A600008FB00BF4DF808EDFFF7C8FF34BF0120B9
:100A700000205DF808FB00BF42000ED2B2F1FE4F2D
:100A80000BD34FF09E03B3EB126209D44FEA00235D
:100A900043F0004323FA02F070474FF00000704724
:100AA00012F1610F01D1420202D14FF0FF307047C5
:100AB0004FF00000704700BF80B500AF002107482D
:100AC00002F072FA0021064802F06EFA054B00228D
:100AD0005A63054B00225A6300BF80BDA803002063
:100AE000F0030020000400400008004080B483B000
:100AF00000AF0346FB71054AFB795363044AFB7957
:100B0000536300BF0C37BD4680BC704700040040F3
:100B10000008004080B500AF074B00225A63074B26
:100B200000225A630021064802F0E0FA002105483D
:100B300002F0DCFA00BF80BD000400400008004065
:100B4000A8030020F003002080B584B000AF7860D7
:100B50000023FB730023BB73642304221049114854
:100B600003F0CBFC0346FB73FB7B002B02D001237D
:100B7000FB730FE00023BB7309E0BA7BBB7B796892
:100B80000B4407498A5C1A70BB7B0133BB73BB7B88
:100B9000032BF2D9FB7B18461037BD4680BD00BF42
:100BA000940000203804002080B582B000AF786047
:100BB0007B681B68054A934204D104220449054816
:100BC00003F02DFD00BF0837BD4680BD0038014051
:100BD000940000203804002080B500AF332000F0DE
:100BE00027F80A2004F0A4FE322000F021F80A20A1
:100BF00004F09EFE282000F01BF8012004F098FE6F
:100C00000C2000F015F8012004F092FE062000F000
:100C10000FF8012004F08CFE012000F009F80220FA
:100C200004F086FE802000F003F800BF80BD0000C5
:100C300080B582B000AF0346FB71FB79DB09DBB204
:100C40001A4620213F4801F0E9FCFB799B09DBB201
:100C500003F00103DBB21A4610213A4801F0DEFC32
:100C6000FB795B09DBB203F00103DBB21A46082112
:100C7000344801F0D3FCFB791B09DBB203F001031C
:100C8000DBB21A4604212F4801F0C8FC00220121E2
:100C90002C4801F0C3FC012202212A4801F0BEFCCD
:100CA000022004F045FE00220221264801F0B6FC95
:100CB000022004F03DFEFB79DB08DBB203F0010308
:100CC000DBB21A4620211F4801F0A8FCFB799B08E3
:100CD000DBB203F00103DBB21A461021194801F020
:100CE0009DFCFB795B08DBB203F00103DBB21A4623
:100CF0000821144801F092FCFB7903F00103DBB2F8
:100D00001A4604210F4801F089FC002201210D48F8
:100D100001F084FC012202210A4801F07FFC02203C
:100D200004F006FE00220221064801F077FC0220B2
:100D300004F0FEFD012004F0FBFD00BF0837BD46B6
:100D400080BD00BF0008014080B582B000AF0346FF
:100D5000FB71FB79DB09DBB21A4620213F4801F029
:100D60005DFCFB799B09DBB203F00103DBB21A46A1
:100D700010213A4801F052FCFB795B09DBB203F029
:100D80000103DBB21A460821344801F047FCFB7925
:100D90001B09DBB203F00103DBB21A4604212F4822
:100DA00001F03CFC012201212C4801F037FC01221A
:100DB00002212A4801F032FC022004F0B9FD002291
:100DC0000221264801F02AFC022004F0B1FDFB7943
:100DD000DB08DBB203F00103DBB21A4620211F4817
:100DE00001F01CFCFB799B08DBB203F00103DBB2D2
:100DF0001A461021194801F011FCFB795B08DBB29F
:100E000003F00103DBB21A460821144801F006FC86
:100E1000FB7903F00103DBB21A4604210F4801F00D
:100E2000FDFB012201210D4801F0F8FB0122022106
:100E30000A4801F0F3FB022004F07AFD00220221AF
:100E4000064801F0EBFB022004F072FD012004F0E3
:100E50006FFD00BF0837BD4680BD00BF00080140E0
:100E600080B500AF0120FFF7E3FE022004F060FD33
:100E700000BF80BD80B582B000AF03460A46FB715B
:100E80001346BB71FB790233DBB29B01DAB2BB794B
:100E90001344DBB21846FFF7CBFE00BF0837BD4650
:100EA00080BD80B584B000AF78600023FB73FB7B0E
:100EB0007A6813441B781846FFF746FFFB7B013323
:100EC000FB73FB7B7A6813441B78002BEFD100BFC8
:100ED00000BF1037BD4680BD80B584B000AF7860DC
:100EE0007B68002B10D17968254BA3FB0123DA081E
:100EF00013469B0013445B00CA1AD3B23033DBB2F3
:100F00001846FFF721FF37E00123FB6017E0FA687E
:100F100013469B0013445B0018467968184BA3FBEB
:100F20000123DA0813469B0013445B00CA1A831896
:100F3000FB607B68124AA2FB0323DB087B607B68B3
:100F4000002BE4D115E0F9680D4BA3FB0123DA086F
:100F500013469B0013445B00CA1AD3B23033DBB292
:100F60001846FFF7F1FEFB68054AA2FB0323DB08E6
:100F7000FB60FB68012BE6D100BF1037BD4680BD8A
:100F8000CDCCCCCC80B483B000AF7860234B1B7841
:100F9000DBB2002B1DD1224B00225A62204B0022D3
:100FA0005A63204B1B681A6A1E4B1B6822F00A0208
:100FB0001A621C4B1B681A6A1A4B1B6842F0020229
:100FC0001A62164B1B78DBB20133DAB2134B1A707C
:100FD0001EE0124B1B78DBB2012B19D1104B5B6B5F
:100FE0009AB2114B1A800F4B1B681A6A0D4B1B6883
:100FF00022F00A021A620B4B1A680A4B1B68126A2B
:101000001A62064B1B78DBB20133DAB2034B1A705B
:1010100000BF0C37BD4680BC704700BFAA0000204F
:10102000002C014060030020A800002080B483B0A1
:1010300000AF7860094B1B78DBB2022B08D1074B5D
:1010400000221A70064B1B889BB21A467B681A60F6
:1010500000BF0C37BD4680BC704700BFAA0000200F
:10106000A800002080B500AF1B2001F086F8002109
:10107000024802F0EFF800BF80BD00BF600300200F
:1010800080B584B000AF78600023FB6000224FF48D
:101090000041254801F0C2FA032004F049FC012276
:1010A0004FF40041204801F0B9FA0A2004F040FC56
:1010B00000224FF400411C4801F0B0FA1B4B1B68A2
:1010C000DA681A4B1B6842F00202DA6007F10C037F
:1010D0001846FFF7ABFF40F257131A46FB6802FBB6
:1010E00003F31846FFF776F90DA3D3E90023FFF7C2
:1010F00015FB02460B46104619464FF000024FF012
:101100008043FFF70BFB02460B4610461946FFF7DC
:10111000EDFB02467B681A6000BF1037BD4680BDFC
:10112000000000000088C340000C01406003002064
:1011300080B485B000AFF860B9607A60FB68064A99
:101140001A60BB68054A1A607B6880221A6000BF7B
:101150001437BD4680BC7047AC0000206001002001
:1011600080B582B002AF00F0B3FE00F05DF800F091
:1011700015FA00F09BF800F0EFF800F0BBF900F072
:1011800043F900F0E1F903F0EFFF03461F4A136053
:1011900003F0EAFF03461E4A136000230193012374
:1011A00000930023642200211A4804F07CFA0023F3
:1011B000019302230093002364220021164804F0C7
:1011C00072FA002301930323009300236422002179
:1011D000124804F068FA00230193042300930023CB
:1011E000642200210E4804F05EFA002301930523D7
:1011F00000930023322200210A4804F054FAFFF73A
:1012000031FFFFF759FC04F0C7FBFEE7C8040020DC
:10121000D00400207917000809180008BD1800083C
:10122000B11900087516000880B590B000AF07F13D
:10123000180328220021184605F0A8FB3B1D0022B8
:101240001A605A609A60DA601A610223BB61012356
:10125000BB621023FB6202237B630023BB634FF45A
:101260006013FB6307F11803184601F0EFF903461A
:10127000002B01D000F024FC0F237B600223BB6015
:101280000023FB604FF480633B6100237B613B1DC7
:101290000221184601F05CFC0346002B01D000F04F
:1012A0000FFC00BF4037BD4680BD000080B586B052
:1012B00000AF07F1100300221A605A603B4600227B
:1012C0001A605A609A60DA60214B224A1A60204BF9
:1012D0003F225A601E4B00229A601D4B4FF6FF7250
:1012E000DA601B4B00221A61194B00225A61184B1D
:1012F00000229A61164801F05DFF0346002B01D0E1
:1013000000F0DEFB00233B6100237B6107F110034B
:1013100019460F4802F0AEFF0346002B01D000F043
:10132000CFFB00233B6001237B600023BB600023D5
:10133000FB603B4600221946054802F09FF9034630
:10134000002B01D000F0BCFB00BF1837BD4680BDAC
:1013500060030020002C014080B58AB000AF07F187
:10136000200300221A605A603B1D00221A605A6056
:101370009A60DA601A615A619A61214B214A1A60B7
:101380001F4B1F225A601E4B00229A601C4B632287
:10139000DA601B4B00221A61194B00229A6118482F
:1013A00001F0B3FD0346002B01D000F089FB0023C0
:1013B0003B6200237B6207F120031946104802F0CC
:1013C00059FF0346002B01D000F07AFB60237B60BD
:1013D0000023BB600023FB6000237B613B1D0022D8
:1013E0001946074802F0E6F90346002B01D000F049
:1013F00067FB034800F026FC00BF2837BD4680BDD0
:10140000A80300200004004080B58EB000AF07F1B3
:10141000280300221A605A609A60DA6007F12003FC
:1014200000221A605A603B1D00221A605A609A60BE
:10143000DA601A615A619A612C4B2D4A1A602B4B63
:101440001F225A60294B00229A60284B6322DA60DF
:10145000264B00221A61254B00229A61234801F095
:1014600005FD0346002B01D000F02AFB4FF480530A
:10147000BB6207F1280319461C4802F05DFA0346D7
:10148000002B01D000F01CFB184801F03EFD034684
:10149000002B01D000F014FB00233B6200237B6291
:1014A00007F120031946114802F0E4FE0346002B21
:1014B00001D000F005FB60237B600023BB600023AC
:1014C000FB6000237B613B1D00221946074802F0A8
:1014D00071F90346002B01D000F0F2FA034800F046
:1014E000B1FB00BF3837BD4680BD00BFF003002010
:1014F0000008004080B500AF114B124A1A60104B33
:101500004FF416525A600E4B00229A600C4B002288
:10151000DA600B4B00221A61094B0C225A61084B0E
:1015200000229A61064B0022DA61054802F012FFA0
:101530000346002B01D000F0C3FA00BF80BD00BFFE
:10154000380400200038014080B500AF114B124A2A
:101550001A60104B4FF416525A600E4B00229A60DC
:101560000C4B0022DA600B4B00221A61094B0C2253
:101570005A61084B00229A61064B0022DA61054845
:1015800002F0E8FE0346002B01D000F099FA00BFFC
:1015900080BD00BF800400200048004080B588B0B6
:1015A00000AF07F1100300221A605A609A60DA60F7
:1015B0002D4B9B692C4A43F0100393612A4B9B6986
:1015C00003F01003FB60FB68274B9B69264A43F03E
:1015D00020039361244B9B6903F02003BB60BB682D
:1015E000214B9B69204A43F0040393611E4B9B6986
:1015F00003F004037B607B681B4B9B691A4A43F032
:1016000008039361184B9B6903F008033B603B6838
:101610000022BF21154801F001F8002248F2030121
:10162000134800F0FBFFBF233B6101237B610023D4
:10163000BB610223FB6107F1100319460B4800F060
:1016400069FE48F203033B6101237B610023BB6118
:101650000223FB6107F110031946054800F05AFE0A
:1016600000BF2037BD4680BD001002400008014089
:10167000000C014080B582B000AF7860314B1B7820
:10168000012B59D1304B1B6830491846FFF7CCF974
:101690000346002B09D02E4B1B78002B05D12C4B79
:1016A00001221A70FFF7DCFB0BE0274B1B68274970
:1016B0001846FFF7D7F90346002B02D0244B00222F
:1016C0001A70244B1B78002B04D1FFF785FA214BAD
:1016D00001221A7000210020FFF7CCFB1E48FFF703
:1016E000E0FB1E4B93F900301846FFF7F5FB1C4852
:1016F000FFF7D7FB09210120FFF7BCFB1948FFF7D3
:10170000D0FB194B1B78012B03D11848FFF7C9FBFD
:1017100002E01748FFF7C5FB00210120FFF7AAFBF5
:101720001448FFF7BEFB084B1B681846FFF7A4F9E7
:1017300003461846FFF7D0FB4FF4FA7004F0F8F8B0
:101740009CE700BFDA040020DC04002000002041F8
:10175000E2040020E1040020306B0008D8040020DF
:10176000386B00083C6B0008D9040020446B00086B
:10177000486B00084C6B000880B584B000AF7860FF
:101780000123FB730023BB6007F108031846FFF732
:10179000DBF90346FB73FB7B002B2FD13B7A452BF8
:1017A00015D0532B2AD17B7A302B08D0312B22D164
:1017B000144B1B680421184603F0BEFD06E0114BD4
:1017C0001B680821184603F0B7FD00BF13E07B7AC1
:1017D000302B08D0312B10D10A4B1B680121184641
:1017E00003F0AAFD06E0074B1B680221184603F030
:1017F000A3FD00BF01E000BF00E000BF0A2004F02D
:1018000097F8C1E7C804002080B586B002AF7860C1
:10181000224BFB60224BBB60224B18684FF0FF331A
:10182000009300230122032103F0B8FC03461E4A63
:1018300013601D4B1B6803F00103002B13D01B4BDF
:101840001B78012B0FD11A4B1B780133DAB2184BDE
:101850001A7007F10C0164230422164802F0CAFD35
:10186000124B00221A70104B1B6803F00203002B6E
:10187000D2D0114B1B78012BCED107F10801642384
:1018800004220C4802F0B6FD094B1B78013BDAB28A
:10189000074B1A70084B00221A70BDE731300D0A51
:1018A00030350D0AD0040020D404002000000020B0
:1018B000E0040020380400200100002080B582B040
:1018C00000AF7860314B1B78012B5AD13048FFF7BD
:1018D000D7FB2F4B1B682F491846FFF7C3F8034669
:1018E000002B09D02C4B00221A702C4B01221A70AD
:1018F0002B4B01221A7044E0254B1B6825491846E2
:10190000FFF79CF80346002B1FD0214B1B6825498D
:101910001846FFF7A7F80346002B16D01E4B0122EE
:101920001A70214B14221A701F4B93F90030DBB24E
:101930001846FFF7DBF81A4B01221A701B4B1B6885
:101940000121184603F0F8FC1BE0114B1B681549F8
:101950001846FFF769F80346002B12D00E4B012200
:101960001A70114B00221A700F4B93F90030DBB242
:101970001846FFF7BBF80D4B1B680221184603F011
:10198000DBFCFA2003F0D4FF9CE700BFDA04002060
:10199000DC04002000002041D904002000000020C9
:1019A000010000200000A040D8040020D004002046
:1019B00080B584B002AF78603D4B18684FF0FF33BC
:1019C0000093002301220F2103F0E8FB0346394A6C
:1019D0001360384B1B6803F00103002B04D0FFF7A2
:1019E0006BF8354B01221A70324B1B6803F002036F
:1019F000002B07D0314B00221A70FFF78BF82E4BCB
:101A000000221A702B4B1B6803F00403002B23D019
:101A1000294B1B78012B1FD1284B93F90030DBB2E7
:101A20000A33DBB25AB2254B1A70244B93F90030BB
:101A3000642B0ADD214B64221A70204B93F900308D
:101A4000DBB21846FFF752F806E01C4B93F9003062
:101A5000DBB21846FFF74AF8164B1B6803F0080381
:101A6000002BA9D0144B1B78012BA5D1134B93F954
:101A70000030DBB20A3BDBB25AB2104B1A700F4B8C
:101A800093F90030002B0ADA0C4B00221A700B4B32
:101A900093F90030DBB21846FFF728F88CE7074BC4
:101AA00093F90030DBB21846FFF720F884E700BF57
:101AB000C8040020CC040020DA040020D804002050
:101AC00080B400AF72B600BFFEE7000080B584B0FE
:101AD00000AF184B9B69174A43F001039361154B04
:101AE0009B6903F00103BB60BB68124BDB69114AC1
:101AF00043F08053D3610F4BDB6903F080537B606D
:101B00007B6800220F216FF0010000F01AFB0A4BE6
:101B10005B68FB60FB6823F0E063FB60FB6843F0FD
:101B20000073FB60044AFB68536000BF1037BD467A
:101B300080BD00BF001002400000014080B588B0A9
:101B400000AF786007F1100300221A605A609A60B3
:101B5000DA607B681B681A4A93422CD1194B9B6947
:101B6000184A43F400639361164B9B6903F40063C6
:101B7000FB60FB68134B9B69124A43F004039361BB
:101B8000104B9B6903F00403BB60BB684FF4807388
:101B90003B6100237B610023BB6107F11003194601
:101BA000094800F0B7FB002205211B2000F0C9FA0C
:101BB0001B2000F0E2FA00BF2037BD4680BD00BF09
:101BC000002C0140001002400008014080B485B0A4
:101BD00000AF78607B681B68094A93420BD1094BC0
:101BE000DB69084A43F00203D361064BDB6903F06B
:101BF0000203FB60FB6800BF1437BD4680BC704722
:101C0000000400400010024080B485B000AF78604E
:101C10007B681B68094A93420BD1094BDB69084A70
:101C200043F00403D361064BDB6903F00403FB605C
:101C3000FB6800BF1437BD4680BC704700080040F9
:101C40000010024080B588B000AF786007F1100343
:101C500000221A605A609A60DA607B681B681E4A2C
:101C6000934218D11D4B9B691C4A43F004039361B6
:101C70001A4B9B6903F00403FB60FB6840233B6144
:101C800002237B610223FB6107F11003194614480C
:101C900000F040FB1CE07B681B68124A934217D19E
:101CA0000E4B9B690D4A43F0080393610B4B9B69F4
:101CB00003F00803BB60BB6840233B6102237B61E8
:101CC0000223FB6107F110031946074800F022FBCD
:101CD00000BF2037BD4680BD000400400010024018
:101CE0000008014000080040000C014080B58AB0A7
:101CF00000AF786007F1180300221A605A609A60FA
:101D0000DA607B681B683C4A934232D13B4B9B694B
:101D10003A4A43F480439361384B9B6903F4804310
:101D20007B617B69354B9B69344A43F004039361C3
:101D3000324B9B6903F004033B613B694FF4007332
:101D4000BB610223FB6103237B6207F11803194681
:101D50002B4800F0DFFA4FF48063BB610023FB6186
:101D600000233B6207F118031946254800F0D2FA18
:101D70003EE07B681B68234A934239D11F4BDB69E5
:101D80001E4A43F48023D3611C4BDB6903F4802398
:101D9000FB60FB68194B9B69184A43F00803936189
:101DA000164B9B6903F00803BB60BB684FF480636C
:101DB000BB610223FB6103237B6207F11803194611
:101DC000114800F0A7FA4FF40063BB610023FB61E8
:101DD00000233B6207F1180319460B4800F09AFAFA
:101DE00000220521272000F0ACF9272000F0C5F9DA
:101DF00000BF2837BD4680BD0038014000100240BA
:101E00000008014000480040000C014080B400AFD1
:101E1000FEE780B400AFFEE780B400AFFEE780B419
:101E200000AFFEE780B400AFFEE780B400AF00BFB4
:101E3000BD4680BC704780B500AF00F08FF804F05D
:101E40005BF90346012B01D004F05EFB00BF80BDAF
:101E500080B500AF024801F009FB00BF80BD00BFA4
:101E60006003002080B500AF024802F0FDFB00BF18
:101E700080BD00BF8004002080B400AF00BFBD461D
:101E800080BC7047FFF7F8FF0B480C490C4A002351
:101E900002E0D458C4500433C4188C42F9D3094A20
:101EA000094C002301E013600432A242FBD304F08A
:101EB00047FDFFF755F9704700000020780000202B
:101EC000F06B0008780000203C120020FEE70000C4
:101ED00080B500AF084B1B68074A43F0100313603E
:101EE000032000F023F90F2000F008F8FFF7EEFDC3
:101EF0000023184680BD00BF0020024080B582B09C
:101F000000AF7860124B1A68124B1B7819464FF4D9
:101F10007A73B3FBF1F3B2FBF3F3184600F03BF92D
:101F20000346002B01D001230EE07B680F2B0AD85B
:101F3000002279684FF0FF3000F003F9064A7B6811
:101F40001360002300E0012318460837BD4680BD1A
:101F5000040000200C0000200800002080B400AF26
:101F6000054B1B781A46054B1B681344034A136044
:101F700000BFBD4680BC70470C000020E404002078
:101F800080B400AF024B1B681846BD4680BC70474A
:101F9000E404002080B485B000AF78607B6803F073
:101FA0000703FB600C4BDB68BB60BA684FF6FF03AE
:101FB0001340BB60FB681A02BB68134343F0BF6366
:101FC00043F40033BB60044ABB68D36000BF1437DE
:101FD000BD4680BC704700BF00ED00E080B400AF9C
:101FE000044BDB681B0A03F007031846BD4680BCA0
:101FF000704700BF00ED00E080B483B000AF03463F
:10200000FB7197F90730002B0BDBFB7903F01F0204
:10201000064997F907305B09012000FA02F241F8FE
:10202000232000BF0C37BD4680BC704700E100E0B4
:1020300080B483B000AF03463960FB7197F9073075
:10204000002B0ADB3B68DAB20C4997F90730120122
:10205000D2B20B4483F800230AE03B68DAB20849A5
:10206000FB7903F00F03043B1201D2B20B441A7642
:1020700000BF0C37BD4680BC704700BF00E100E0E8
:1020800000ED00E080B489B000AFF860B9607A601C
:10209000FB6803F00703FB61FB69C3F10703042B33
:1020A00028BF0423BB61FB690433062B02D9FB69FB
:1020B000033B00E000237B614FF0FF32BB6902FA73
:1020C00003F3DA43BB681A407B699A404FF0FF3153
:1020D0007B6901FA03F3D9437B680B40134318462D
:1020E0002437BD4680BC704780B582B000AF7860B1
:1020F0007B68013BB3F1807F01D301230FE00A4AE3
:102100007B68013B53600F214FF0FF30FFF790FFDA
:10211000054B00229A60044B07221A6000231846E0
:102120000837BD4680BD00BF10E000E080B582B03A
:1021300000AF78607868FFF72DFF00BF0837BD4615
:1021400080BD80B586B000AF0346B9607A60FB738E
:1021500000237B61FFF742FF78617A68B96878698C
:10216000FFF790FF024697F90F3011461846FFF728
:102170005FFF00BF1837BD4680BD80B582B000AF9D
:102180000346FB7197F907301846FFF735FF00BF8C
:102190000837BD4680BD80B582B000AF78607868F2
:1021A000FFF7A2FF034618460837BD4680BD80B43E
:1021B00085B000AF78600023FB737B6893F8213013
:1021C000DBB2022B08D07B6804229A637B68002272
:1021D00083F82020012320E07B681B681A687B6855
:1021E0001B6822F00E021A607B681B681A687B6805
:1021F0001B6822F001021A607B681A6C7B68DB6B3B
:10220000012101FA02F25A607B68012283F8212041
:102210007B68002283F82020FB7B18461437BD46DC
:1022200080BC704780B584B000AF78600023FB733A
:102230007B6893F82130DBB2022B05D07B68042247
:102240009A630123FB7351E07B681B681A687B6803
:102250001B6822F00E021A607B681B681A687B6894
:102260001B6822F001021A607B681B68224A9342B5
:1022700029D07B681B68214A934222D07B681B6867
:102280001F4A93421AD07B681B681E4A934212D0A1
:102290007B681B681C4A93420AD07B681B681B4AF8
:1022A000934202D14FF480130EE04FF080730BE0A5
:1022B0004FF4803308E04FF4805305E04FF480730F
:1022C00002E0102300E00123114A53607B680122E1
:1022D00083F821207B68002283F820207B685B6BD9
:1022E000002B03D07B685B6B78689847FB7B1846B4
:1022F0001037BD4680BD00BF080002401C000240F0
:102300003000024044000240580002406C0002408D
:102310000000024080B48BB000AF786039600023C9
:102320007B6200233B6269E101227B6A02FA03F3CC
:10233000FB613B681B68FA691340BB61BA69FB69C2
:102340009A4240F058813B685B689A4A93425ED05B
:10235000984A934275D8984A934258D0964A9342E5
:102360006FD8964A934252D0944A934269D8944A7D
:1023700093424CD0924A934263D8924A934246D0B9
:10238000904A93425DD8122B2AD8122B59D801A219
:1023900052F823F00F240008E9230008FB2300086B
:1023A0003D24000843240008432400084324000877
:1023B0004324000843240008432400084324000861
:1023C0004324000843240008432400084324000851
:1023D0004324000843240008F123000805240008D2
:1023E000794A934213D02CE03B68DB683B6229E0DA
:1023F0003B68DB6804333B6224E03B68DB680833FE
:102400003B621FE03B68DB680C333B621AE03B68D1
:102410009B68002B02D104233B6213E03B689B685E
:10242000012B05D108233B627B68FA691A6109E038
:1024300008233B627B68FA695A6103E000233B6230
:1024400000E000BFBB69FF2B01D87B6801E07B681F
:1024500004337B61BB69FF2B02D87B6A9B0002E0DF
:102460007B6A083B9B003B617B691A680F213B69D3
:1024700001FA03F3DB431A40396A3B6901FA03F3BB
:102480001A437B691A603B685B6803F08053002B3A
:1024900000F0B1804D4B9B694C4A43F001039361BE
:1024A0004A4B9B6903F00103BB60BB68484A7B6AE7
:1024B0009B08023352F82330FB607B6A03F003036E
:1024C0009B000F2202FA03F3DB43FA681340FB6020
:1024D0007B68404A934213D07B683F4A93420DD0B9
:1024E0007B683E4A934207D07B683D4A934201D1C4
:1024F000032306E0042304E0022302E0012300E0BA
:1025000000237A6A02F0030292009340FA681343B0
:10251000FB602F497B6A9B080233FA6841F823204D
:102520003B685B6803F48013002B06D02D4B9A6840
:102530002C49BB6913438B6006E02A4B9A68BB6940
:10254000DB43284913408B603B685B6803F400134E
:10255000002B06D0234BDA682249BB691343CB60BA
:1025600006E0204BDA68BB69DB431E491340CB60B1
:102570003B685B6803F40033002B06D0194B5A68A4
:102580001849BB6913434B6006E0164B5A68BB6998
:10259000DB43144913404B603B685B6803F48033B2
:1025A000002B21D00F4B1A680E49BB6913430B60F7
:1025B00021E000BF000032100000311000002210A6
:1025C0000000211000001210000011100010024045
:1025D0000000014000080140000C014000100140D3
:1025E00000140140000401400B4B1A68BB69DB4337
:1025F000094913400B607B6A01337B623B681A68B0
:102600007B6A22FA03F3002B7FF48EAE00BF00BF7B
:102610002C37BD4680BC70470004014080B483B0B5
:1026200000AF78600B467B8013467B707B78002B75
:1026300003D07A887B681A6103E07B881A047B6880
:102640001A6100BF0C37BD4680BC704780B586B0AC
:1026500000AF78607B68002B01D1012372E27B68B8
:102660001B6803F00103002B00F08780924B5B682E
:1026700003F00C03042B0CD08F4B5B6803F00C03AE
:10268000082B12D18C4B5B6803F48033B3F5803F89
:102690000BD1894B1B6803F40033002B6CD07B6893
:1026A0005B68002B68D101234CE27B685B68B3F563
:1026B000803F06D1804B1B687F4A43F48033136010
:1026C0002EE07B685B68002B0CD17B4B1B687A4A41
:1026D00023F480331360784B1B68774A23F48023FC
:1026E00013601DE07B685B68B3F5A02F0CD1724BC3
:1026F0001B68714A43F4802313606F4B1B686E4A5A
:1027000043F4803313600BE06B4B1B686A4A23F47D
:1027100080331360684B1B68674A23F4802313607F
:102720007B685B68002B13D0FFF72AFC386108E058
:10273000FFF726FC02463B69D31A642B01D9032319
:1027400000E25D4B1B6803F40033002BF0D014E073
:10275000FFF716FC386108E0FFF712FC02463B6900
:10276000D31A642B01D90323ECE1534B1B6803F408
:102770000033002BF0D100E000BF7B681B6803F042
:102780000203002B63D04C4B5B6803F00C03002B5F
:102790000BD0494B5B6803F00C03082B1CD1464B54
:1027A0005B6803F48033002B16D1434B1B6803F0A6
:1027B0000203002B05D07B681B69012B01D001238C
:1027C000C0E13D4B1B6823F0F8027B685B69DB00CE
:1027D000394913430B603AE07B681B69002B20D01A
:1027E000364B01221A60FFF7CBFB386108E0FFF798
:1027F000C7FB02463B69D31A022B01D90323A1E18F
:102800002D4B1B6803F00203002BF0D02A4B1B68F2
:1028100023F0F8027B685B69DB00274913430B60F8
:1028200015E0264B00221A60FFF7AAFB386108E08A
:10283000FFF7A6FB02463B69D31A022B01D90323FB
:1028400080E11D4B1B6803F00203002BF0D17B6875
:102850001B6803F00803002B3AD07B689B69002BB0
:1028600019D0174B01221A60FFF78AFB386108E084
:10287000FFF786FB02463B69D31A022B01D90323DB
:1028800060E10D4B5B6A03F00203002BF0D00120E6
:1028900000F0CEFA1CE00A4B00221A60FFF770FB32
:1028A00038610FE0FFF76CFB02463B69D31A022B3D
:1028B00008D9032346E100BF001002400000424255
:1028C00080044242924B5B6A03F00203002BE9D181
:1028D0007B681B6803F00403002B00F0A680002334
:1028E000FB758B4BDB6903F08053002B0DD1884BBC
:1028F000DB69874A43F08053D361854BDB6903F082
:102900008053BB60BB680123FB75824B1B6803F4DB
:102910008073002B18D17F4B1B687E4A43F4807371
:102920001360FFF72DFB386108E0FFF729FB024633
:102930003B69D31A642B01D9032303E1754B1B6850
:1029400003F48073002BF0D07B68DB68012B06D189
:102950006F4B1B6A6E4A43F0010313622DE07B68E4
:10296000DB68002B0CD16A4B1B6A694A23F0010318
:102970001362674B1B6A664A23F0040313621CE070
:102980007B68DB68052B0CD1614B1B6A604A43F006
:10299000040313625E4B1B6A5D4A43F0010313623A
:1029A0000BE05B4B1B6A5A4A23F001031362584B3E
:1029B0001B6A574A23F0040313627B68DB68002B11
:1029C00015D0FFF7DDFA38610AE0FFF7D9FA0246C1
:1029D0003B69D31A41F28832934201D90323B1E013
:1029E0004B4B1B6A03F00203002BEED014E0FFF701
:1029F000C7FA38610AE0FFF7C3FA02463B69D31A07
:102A000041F28832934201D903239BE0404B1B6A79
:102A100003F00203002BEED1FB7D012B05D13C4BD3
:102A2000DB693B4A23F08053D3617B68DB69002B71
:102A300000F08780364B5B6803F00C03082B61D0F5
:102A40007B68DB69022B46D1334B00221A60FFF70B
:102A500097FA386108E0FFF793FA02463B69D31A08
:102A6000022B01D903236DE0294B1B6803F000738F
:102A7000002BF0D17B681B6AB3F5803F08D1244B53
:102A80005B6823F400327B689B68214913434B60E9
:102A90001F4B5B6823F474127B68196A7B685B6A5E
:102AA0000B431B4913434B601B4B01221A60FFF77A
:102AB00067FA386108E0FFF763FA02463B69D31A08
:102AC000022B01D903233DE0114B1B6803F0007377
:102AD000002BF0D035E0104B00221A60FFF750FABF
:102AE000386108E0FFF74CFA02463B69D31A022B23
:102AF00001D9032326E0064B1B6803F00073002B6B
:102B0000F0D11EE07B68DB69012B07D1012319E0BE
:102B10000010024000700040600042420B4B5B68B6
:102B2000FB60FB6803F480327B681B6A9A4206D123
:102B3000FB6803F470127B685B6A9A4201D0012340
:102B400000E0002318461837BD4680BD0010024043
:102B500080B584B000AF786039607B68002B01D10C
:102B60000123D0E06A4B1B6803F007033A689A42DE
:102B700010D9674B1B6823F0070265493B68134374
:102B80000B60634B1B6803F007033A689A4201D05D
:102B90000123B8E07B681B6803F00203002B20D000
:102BA0007B681B6803F00403002B05D0594B5B685E
:102BB000584A43F4E06353607B681B6803F00803E2
:102BC000002B05D0534B5B68524A43F4605353606B
:102BD000504B5B6823F0F0027B689B684D491343C0
:102BE0004B607B681B6803F00103002B40D07B68BF
:102BF0005B68012B07D1474B1B6803F40033002BA4
:102C000015D101237FE07B685B68022B07D1414B24
:102C10001B6803F00073002B09D1012373E03D4BC7
:102C20001B6803F00203002B01D101236BE0394B39
:102C30005B6823F003027B685B68364913434B6093
:102C4000FFF79EF9F8600AE0FFF79AF90246FB6881
:102C5000D31A41F28832934201D9032353E02D4B1A
:102C60005B6803F00C027B685B689B009A42EBD1C7
:102C7000274B1B6803F007033A689A4210D2244B93
:102C80001B6823F0070222493B6813430B60204B6B
:102C90001B6803F007033A689A4201D0012332E02F
:102CA0007B681B6803F00403002B08D0194B5B689A
:102CB00023F4E0627B68DB68164913434B607B6852
:102CC0001B6803F00803002B09D0124B5B6823F448
:102CD00060527B681B69DB000E4913434B6000F0B8
:102CE00021F802460B4B5B681B0903F00F030A49EE
:102CF000CB5C22FA03F3094A1360094B1B681846A0
:102D0000FFF7FCF8002318461037BD4680BD00BF12
:102D100000200240001002405C6B0008040000200C
:102D20000800002080B487B000AF0023FB600023C0
:102D3000BB6000237B6100237B6000233B611E4B53
:102D40005B68FB60FB6803F00C03042B02D0082BCC
:102D500003D027E0194B3B6127E0FB689B0C03F095
:102D60000F03174AD35C7B60FB6803F48033002BAE
:102D700010D0114B5B685B0C03F00103114AD35C6C
:102D8000BB607B680D4A03FB02F2BB68B2FBF3F346
:102D90007B6104E07B680C4A02FB03F37B617B6987
:102DA0003B6102E0054B3B6100BF3B6918461C37A5
:102DB000BD4680BC704700BF0010024000127A0080
:102DC000746B0008846B000800093D0080B400AFFC
:102DD000024B1B681846BD4680BC704704000020AB
:102DE00080B500AFFFF7F2FF0246054B5B681B0A98
:102DF00003F007030349CB5C22FA03F3184680BDB6
:102E0000001002406C6B000880B500AFFFF7DEFFDA
:102E10000246054B5B68DB0A03F007030349CB5C02
:102E200022FA03F3184680BD001002406C6B0008C4
:102E300080B485B000AF78600A4B1B680A4AA2FBD9
:102E400003235B0A7A6802FB03F3FB6000BFFB68A5
:102E50005A1EFA60002BF9D100BF00BF1437BD46DF
:102E600080BC704704000020D34D621080B582B052
:102E700000AF78607B68002B01D1012341E07B68C3
:102E800093F83D30DBB2002B06D17B68002283F83B
:102E90003C207868FEF7B8FE7B68022283F83D206C
:102EA0007B681A687B6804331946104600F030FED0
:102EB0007B68012283F846207B68012283F83E204C
:102EC0007B68012283F83F207B68012283F8402041
:102ED0007B68012283F841207B68012283F842202D
:102EE0007B68012283F843207B68012283F8442019
:102EF0007B68012283F845207B68012283F83D200E
:102F0000002318460837BD4680BD80B582B000AFAB
:102F100078607B68002B01D1012341E07B6893F846
:102F20003D30DBB2002B06D17B68002283F83C20C9
:102F30007868FEF74BFE7B68022283F83D207B68B1
:102F40001A687B6804331946104600F0E1FD7B687F
:102F5000012283F846207B68012283F83E207B68AB
:102F6000012283F83F207B68012283F840207B68A0
:102F7000012283F841207B68012283F842207B688C
:102F8000012283F843207B68012283F844207B6878
:102F9000012283F845207B68012283F83D2000232D
:102FA00018460837BD4680BD80B584B000AF786054
:102FB00039603B68002B09D17B6893F83E30DBB267
:102FC000012B14BF01230023DBB222E03B68042B5A
:102FD00009D17B6893F83F30DBB2012B14BF01238A
:102FE0000023DBB215E03B68082B09D17B6893F81E
:102FF0004030DBB2012B14BF01230023DBB208E019
:103000007B6893F84130DBB2012B14BF012300230E
:10301000DBB2002B01D001235EE03B68002B04D122
:103020007B68022283F83E2013E03B68042B04D126
:103030007B68022283F83F200BE03B68082B04D119
:103040007B68022283F8402003E07B68022283F839
:1030500041207B681B6801223968184601F0E5F8B9
:103060007B681B681E4A934207D17B681B685A6CB9
:103070007B681B6842F400425A647B681B68184AEC
:1030800093420ED07B681B68B3F1804F09D07B68F8
:103090001B68144A934204D07B681B68124A93420F
:1030A00011D17B681B689B6803F00703FB60FB681A
:1030B000062B10D07B681B681A687B681B6842F07F
:1030C00001021A6007E07B681B681A687B681B684E
:1030D00042F001021A60002318461037BD4680BD39
:1030E000002C0140000400400008004080B582B080
:1030F00000AF786039607B681B6800223968184629
:1031000001F093F87B681B68294A934217D17B68CA
:103110001B681A6A41F211131340002B0FD17B6810
:103120001B681A6A40F244431340002B07D17B68A6
:103130001B685A6C7B681B6822F400425A647B68E7
:103140001B681A6A41F211131340002B0FD17B68E0
:103150001B681A6A40F244431340002B07D17B6876
:103160001B681A687B681B6822F001021A603B68C2
:10317000002B04D17B68012283F83E2013E03B68DA
:10318000042B04D17B68012283F83F200BE03B68CD
:10319000082B04D17B68012283F8402003E07B6880
:1031A000012283F84120002318460837BD4680BD20
:1031B000002C014080B582B000AF78607B68002BA6
:1031C00001D1012341E07B6893F83D30DBB2002B55
:1031D00006D17B68002283F83C207868FEF7AEFCBD
:1031E0007B68022283F83D207B681A687B68043381
:1031F0001946104600F08CFC7B68012283F84620BB
:103200007B68012283F83E207B68012283F83F20FF
:103210007B68012283F840207B68012283F84120EB
:103220007B68012283F842207B68012283F84320D7
:103230007B68012283F844207B68012283F84520C3
:103240007B68012283F83D20002318460837BD46DD
:1032500080BD000080B584B000AF78603960002385
:10326000FB733B68002B04D17B6893F83E30DBB2E4
:1032700013E03B68042B04D17B6893F83F30DBB24A
:103280000BE03B68082B04D17B6893F84030DBB23D
:1032900003E07B6893F84130DBB2BB733B68002BE3
:1032A00004D17B6893F84230DBB213E03B68042B17
:1032B00004D17B6893F84330DBB20BE03B68082B0A
:1032C00004D17B6893F84430DBB203E07B6893F869
:1032D0004530DBB27B73BB7B012B02D17B7B012BA7
:1032E00001D00123B8E03B68002B04D17B680222A7
:1032F00083F83E2013E03B68042B04D17B68022254
:1033000083F83F200BE03B68082B04D17B68022246
:1033100083F8402003E07B68022283F841203B6869
:10332000002B04D17B68022283F8422013E03B6823
:10333000042B04D17B68022283F843200BE03B6816
:10334000082B04D17B68022283F8442003E07B68C9
:10335000022283F845203B680C2B41D801A252F889
:1033600023F000BF99330008E1330008E13300087F
:10337000E1330008AB330008E1330008E133000813
:10338000E1330008BD330008E1330008E1330008F1
:10339000E1330008CF3300087B681B68DA687B687C
:1033A0001B6842F00202DA601DE07B681B68DA6885
:1033B0007B681B6842F00402DA6014E07B681B68DB
:1033C000DA687B681B6842F00802DA600BE07B6811
:1033D0001B68DA687B681B6842F01002DA6002E062
:1033E0000123FB7300BFFB7B002B34D17B681B6880
:1033F00001223968184600F018FF7B681B68184ADC
:1034000093420ED07B681B68B3F1804F09D07B6874
:103410001B68144A934204D07B681B68124A93428B
:1034200011D17B681B689B6803F00703BB60BB6816
:10343000062B10D07B681B681A687B681B6842F0FB
:1034400001021A6007E07B681B681A687B681B68CA
:1034500042F001021A60FB7B18461037BD4680BD62
:10346000002C0140000400400008004080B582B0FC
:1034700000AF78607B681B681B6903F00203022BB6
:1034800022D17B681B68DB6803F00203022B1BD18F
:103490007B681B686FF002021A617B6801221A7751
:1034A0007B681B689B6903F00303002B03D07868DB
:1034B000FDF768FD05E0786800F00EFB786800F025
:1034C00014FB7B6800221A777B681B681B6903F07A
:1034D0000403042B22D17B681B68DB6803F0040320
:1034E000042B1BD17B681B686FF004021A617B6898
:1034F00002221A777B681B689B6903F44073002BD8
:1035000003D07868FDF73EFD05E0786800F0E4FA46
:10351000786800F0EAFA7B6800221A777B681B68FB
:103520001B6903F00803082B22D17B681B68DB684A
:1035300003F00803082B1BD17B681B686FF008029F
:103540001A617B6804221A777B681B68DB6903F0C9
:103550000303002B03D07868FDF714FD05E07868BD
:1035600000F0BAFA786800F0C0FA7B6800221A7797
:103570007B681B681B6903F01003102B22D17B684A
:103580001B68DB6803F01003102B1BD17B681B68E2
:103590006FF010021A617B6808221A777B681B683B
:1035A000DB6903F44073002B03D07868FDF7EAFC75
:1035B00005E0786800F090FA786800F096FA7B6889
:1035C00000221A777B681B681B6903F00103012B3B
:1035D0000ED17B681B68DB6803F00103012B07D168
:1035E0007B681B686FF001021A61786800F06BFA63
:1035F0007B681B681B6903F08003802B0ED17B68FE
:103600001B68DB6803F08003802B07D17B681B6895
:103610006FF080021A61786800F093FE7B681B6887
:103620001B6903F04003402B0ED17B681B68DB68ED
:1036300003F04003402B07D17B681B686FF040020A
:103640001A61786800F05AFA7B681B681B6903F0FE
:103650002003202B0ED17B681B68DB6803F020035E
:10366000202B07D17B681B686FF020021A617868F5
:1036700000F05EFE00BF0837BD4680BD80B586B055
:1036800000AFF860B9607A600023FB75FB6893F8BF
:103690003C30012B01D1022388E0FB68012283F832
:1036A0003C207B68002B1BD1FB681868BB6819683D
:1036B000BB685A68BB68DB6800F014FCFB681B68D9
:1036C0009A69FB681B6822F00C029A61FB681B6810
:1036D0009969BB689A68FB681B680A439A6160E055
:1036E0007B68042B1CD1FB681868BB681968BB6831
:1036F0005A68BB68DB6800F07DFCFB681B689A6950
:10370000FB681B6822F440629A61FB681B68996938
:10371000BB689B681A02FB681B680A439A6140E019
:103720007B68082B1BD1FB681868BB681968BB68ED
:103730005A68BB68DB6800F0C8FCFB681B68DA6984
:10374000FB681B6822F00C02DA61FB681B68D96910
:10375000BB689A68FB681B680A43DA6121E07B68F2
:103760000C2B1CD1FB681868BB681968BB685A68C9
:10377000BB68DB6800F0E4FCFB681B68DA69FB6887
:103780001B6822F44062DA61FB681B68D969BB6878
:103790009B681A02FB681B680A43DA6101E0012397
:1037A000FB75FB68002283F83C20FB7D1846183728
:1037B000BD4680BD80B586B000AFF860B9607A6064
:1037C0000023FB75FB6893F83C30012B01D10223E9
:1037D000AEE0FB68012283F83C207B680C2B00F2F2
:1037E0009F8001A252F823F01D38000821390008FB
:1037F00021390008213900085D3800082139000806
:1038000021390008213900089F38000821390008B3
:103810002139000821390008DF380008FB681B68DF
:10382000B968184600F0D6F9FB681B689A69FB680E
:103830001B6842F008029A61FB681B689A69FB6882
:103840001B6822F004029A61FB681B689969BB68D7
:103850001A69FB681B680A439A6164E0FB681B688D
:10386000B968184600F01CFAFB681B689A69FB6887
:103870001B6842F400629A61FB681B689A69FB68E6
:103880001B6822F480629A61FB681B689969BB68B7
:103890001B691A02FB681B680A439A6143E0FB68D4
:1038A0001B68B968184600F065FAFB681B68DA699E
:1038B000FB681B6842F00802DA61FB681B68DA6982
:1038C000FB681B6822F00402DA61FB681B68D96997
:1038D000BB681A69FB681B680A43DA6123E0FB686E
:1038E0001B68B968184600F0AFFAFB681B68DA6914
:1038F000FB681B6842F40062DA61FB681B68DA69E6
:10390000FB681B6822F48062DA61FB681B68D96976
:10391000BB681B691A02FB681B680A43DA6102E094
:103920000123FB7500BFFB68002283F83C20FB7D70
:1039300018461837BD4680BD80B584B000AF7860AA
:1039400039600023FB737B6893F83C30012B01D175
:103950000223B4E07B68012283F83C207B680222CA
:1039600083F83D207B681B689B68BB60BB6823F0C5
:103970007703BB60BB6823F47F43BB607B681B6835
:10398000BA689A603B681B68B3F5005F3ED0B3F538
:10399000005F00F28780B3F5805F00F08680B3F5AA
:1039A000805F7FD8702B1AD0702B7BD8602B50D0C3
:1039B000602B77D8502B3CD0502B73D8402B58D04D
:1039C000402B6FD8302B64D0302B6BD8202B60D09D
:1039D000202B67D8002B5CD0102B5AD062E07B687C
:1039E00018683B6899683B685A683B68DB6800F078
:1039F000FDFB7B681B689B68BB60BB6843F077037B
:103A0000BB607B681B68BA689A604FE07B68186887
:103A10003B6899683B685A683B68DB6800F0E6FBE6
:103A20007B681B689A687B681B6842F480429A60D6
:103A30003CE07B6818683B6859683B68DB681A465D
:103A400000F0AAFA7B681B685021184600F0B4FB0E
:103A50002CE07B6818683B6859683B68DB681A464D
:103A600000F004FB7B681B686021184600F0A4FB93
:103A70001CE07B6818683B6859683B68DB681A463D
:103A800000F08AFA7B681B684021184600F094FB1E
:103A90000CE07B681A683B681B681946104600F00A
:103AA0008BFB03E00123FB7300E000BF7B68012276
:103AB00083F83D207B68002283F83C20FB7B18467E
:103AC0001037BD4680BD80B483B000AF786000BFC2
:103AD0000C37BD4680BC704780B483B000AF7860BF
:103AE00000BF0C37BD4680BC704780B483B000AFC8
:103AF000786000BF0C37BD4680BC704780B483B08F
:103B000000AF786000BF0C37BD4680BC7047000036
:103B100080B485B000AF786039607B681B68FB605B
:103B20007B68294A93420BD07B68B3F1804F07D062
:103B30007B68264A934203D07B68254A934208D18A
:103B4000FB6823F07003FB603B685B68FA68134313
:103B5000FB607B681C4A93420BD07B68B3F1804FBB
:103B600007D07B68194A934203D07B68184A934276
:103B700008D1FB6823F44073FB603B68DB68FA689C
:103B80001343FB60FB6823F080023B685B691343CF
:103B9000FB607B68FA681A603B689A687B68DA6247
:103BA0003B681A687B689A627B68074A934203D134
:103BB0003B681A697B681A637B6801225A6100BFFF
:103BC0001437BD4680BC7047002C01400004004003
:103BD0000008004080B487B000AF786039607B682F
:103BE0001B6A7B617B681B6A23F001027B681A6297
:103BF0007B685B683B617B689B69FB60FB6823F0CB
:103C00007003FB60FB6823F00303FB603B681B68E9
:103C1000FA681343FB607B6923F002037B613B6816
:103C20009B687A6913437B617B681C4A93420CD181
:103C30007B6923F008037B613B68DB687A69134387
:103C40007B617B6923F004037B617B68134A9342A9
:103C500011D13B6923F480733B613B6923F400730A
:103C60003B613B685B693A6913433B613B689B6915
:103C70003A6913433B617B683A695A607B68FA682A
:103C80009A613B685A687B685A637B687A691A62F2
:103C900000BF1C37BD4680BC704700BF002C0140F0
:103CA00080B487B000AF786039607B681B6A7B6145
:103CB0007B681B6A23F010027B681A627B685B6872
:103CC0003B617B689B69FB60FB6823F4E043FB601E
:103CD000FB6823F44073FB603B681B681B02FA68B7
:103CE0001343FB607B6923F020037B613B689B6887
:103CF0001B017A6913437B617B681D4A93420DD196
:103D00007B6923F080037B613B68DB681B017A6978
:103D100013437B617B6923F040037B617B68144A1A
:103D2000934213D13B6923F480633B613B6923F4E5
:103D300000633B613B685B699B003A6913433B61ED
:103D40003B689B699B003A6913433B617B683A6916
:103D50005A607B68FA689A613B685A687B689A6324
:103D60007B687A691A6200BF1C37BD4680BC704709
:103D7000002C014080B487B000AF786039607B6868
:103D80001B6A7B617B681B6A23F480727B681A6202
:103D90007B685B683B617B68DB69FB60FB6823F0E9
:103DA0007003FB60FB6823F00303FB603B681B6848
:103DB000FA681343FB607B6923F400737B613B6803
:103DC0009B681B027A6913437B617B681D4A93429F
:103DD0000DD17B6923F400637B613B68DB681B02C8
:103DE0007A6913437B617B6923F480637B617B6821
:103DF000144A934213D13B6923F480533B613B69DE
:103E000023F400533B613B685B691B013A69134330
:103E10003B613B689B691B013A6913433B617B68CB
:103E20003A695A607B68FA68DA613B685A687B686D
:103E3000DA637B687A691A6200BF1C37BD4680BCB2
:103E4000704700BF002C014080B487B000AF78609D
:103E500039607B681B6A3B617B681B6A23F4805274
:103E60007B681A627B685B687B617B68DB69FB60EF
:103E7000FB6823F4E043FB60FB6823F44073FB60C2
:103E80003B681B681B02FA681343FB603B6923F421
:103E900000533B613B689B681B033A6913433B61DA
:103EA0007B680F4A934209D17B6923F480437B618D
:103EB0003B685B699B017A6913437B617B687A6924
:103EC0005A607B68FA68DA613B685A687B681A64F2
:103ED0007B683A691A6200BF1C37BD4680BC7047D8
:103EE000002C014080B487B000AFF860B9607A6000
:103EF0003B60FB681B6A3B61FB681B6A23F00102A5
:103F0000FB681A62FB689B697B61FB681F4A9342EE
:103F10000BD0FB68B3F1804F07D0FB681C4A93427B
:103F200003D0FB681B4A934201D1012300E0002328
:103F3000002B08D07B6923F003037B617A697B68DF
:103F400013437B6103E07B6943F001037B617B6981
:103F500023F0F0037B613B681B01DBB27A691343FA
:103F60007B613B6923F00A033B61BB6803F00A03F2
:103F70003A6913433B61FB687A699A61FB683A6965
:103F80001A6200BF1C37BD4680BC7047002C014040
:103F9000000400400008004080B487B000AFF86023
:103FA000B9607A60FB681B6A7B61FB681B6A23F05F
:103FB0000102FB681A62FB689B693B613B6923F065
:103FC000F0033B617B681B013A6913433B617B69EA
:103FD00023F00A037B617A69BB6813437B61FB684A
:103FE0003A699A61FB687A691A6200BF1C37BD465C
:103FF00080BC704780B487B000AFF860B9607A6069
:104000003B60FB681B6A7B61FB681B6A23F0100244
:10401000FB681A62FB689B693B613B6923F4407350
:104020003B617B681B023A6913433B613B6923F4A4
:1040300070433B613B681B039BB23A6913433B618E
:104040007B6923F0A0037B61BB681B0103F0A00325
:104050007A6913437B61FB683A699A61FB687A6904
:104060001A6200BF1C37BD4680BC704780B487B061
:1040700000AFF860B9607A60FB681B6A7B61FB681F
:104080001B6A23F01002FB681A62FB689B693B61A4
:104090003B6923F470433B617B681B033A6913431C
:1040A0003B617B6923F0A0037B61BB681B017A69DC
:1040B00013437B61FB683A699A61FB687A691A620B
:1040C00000BF1C37BD4680BC704780B487B000AFCE
:1040D000F860B9607A603B60FB681B6A7B61FB68D3
:1040E0001B6A23F48072FB681A62FB68DB693B6120
:1040F0003B6923F003033B613A697B6813433B61EF
:104100003B6923F0F0033B613B681B01DBB23A697A
:1041100013433B617B6923F400737B61BB681B0223
:1041200003F400737A6913437B61FB683A69DA61CF
:10413000FB687A691A6200BF1C37BD4680BC7047B5
:1041400080B487B000AFF860B9607A603B60FB680C
:104150001B6A7B61FB681B6A23F48052FB681A624E
:10416000FB68DB693B613B6923F440733B617B681F
:104170001B023A6913433B613B6923F470433B6183
:104180003B681B039BB23A6913433B617B6923F491
:1041900000537B61BB681B0303F400537A6913432C
:1041A0007B61FB683A69DA61FB687A691A6200BF71
:1041B0001C37BD4680BC704780B485B000AF7860C6
:1041C00039607B689B68FB60FB6823F07003FB60D1
:1041D0003A68FB68134343F00703FB607B68FA68A7
:1041E0009A6000BF1437BD4680BC704780B487B06A
:1041F00000AFF860B9607A603B60FB689B687B61E8
:104200007B6923F47F437B613B681A027B681A4316
:10421000BB6813437A6913437B61FB687A699A60D0
:1042200000BF1C37BD4680BC704780B487B000AF6C
:10423000F860B9607A60BB6803F01F03012202FADC
:1042400003F37B61FB681A6A7B69DB431A40FB68F6
:104250001A62FB681A6ABB6803F01F03796801FAE7
:1042600003F31A43FB681A6200BF1C37BD4680BCCB
:104270007047000080B485B000AF786039607B681B
:1042800093F83C30012B01D1022346E07B680122E8
:1042900083F83C207B68022283F83D207B681B6802
:1042A0005B68FB607B681B689B68BB60FB6823F0F6
:1042B0007003FB603B681B68FA681343FB607B6814
:1042C0001B68FA685A607B681B68164A93420ED0D6
:1042D0007B681B68B3F1804F09D07B681B68124A6A
:1042E000934204D07B681B68104A93420CD1BB6890
:1042F00023F08003BB603B685B68BA681343BB6014
:104300007B681B68BA689A607B68012283F83D204D
:104310007B68002283F83C20002318461437BD46F2
:1043200080BC7047002C01400004004000080040A1
:1043300080B483B000AF786000BF0C37BD4680BC4E
:10434000704780B483B000AF786000BF0C37BD46C3
:1043500080BC704780B582B000AF78607B68002B6E
:1043600001D1012342E07B6893F84130DBB2002B9E
:1043700006D17B68002283F840207868FDF7B6FC00
:104380007B68242283F841207B681B68DA687B689D
:104390001B6822F40052DA60786800F057FE7B68F0
:1043A0001B681A697B681B6822F490421A617B685B
:1043B0001B685A697B681B6822F02A025A617B6875
:1043C0001B68DA687B681B6842F40052DA607B681D
:1043D00000225A647B68202283F841207B682022D7
:1043E00083F842207B6800225A630023184608376E
:1043F000BD4680BD80B58AB002AFF860B9603B6051
:104400001346FB8000237B61FB6893F84130DBB2ED
:10441000202B6DD1BB68002B02D0FB88002B01D173
:10442000012366E0FB6800225A64FB68212283F8BE
:104430004120FDF7A5FD7861FB68FA889A84FB6846
:10444000FA88DA84FB689B68B3F5805F08D1FB6863
:104450001B69002B04D10023FB61BB68BB6103E037
:10446000BB68FB610023BB612AE03B6800937B696A
:1044700000228021F86800F0A6FB0346002B01D043
:10448000032336E0FB69002B0BD1BB691B881A465E
:10449000FB681B68C2F308025A60BB690233BB6148
:1044A00007E0FB691A78FB681B685A60FB690133F7
:1044B000FB61FB68DB8C9BB2013B9AB2FB68DA8440
:1044C000FB68DB8C9BB2002BCFD13B6800937B69F0
:1044D00000224021F86800F076FB0346002B01D053
:1044E000032306E0FB68202283F84120002300E03C
:1044F000022318462037BD4680BD80B58AB002AF82
:10450000F860B9603B601346FB8000237B61FB6869
:1045100093F84230DBB2202B7CD1BB68002B02D059
:10452000FB88002B01D1012375E0FB6800225A644F
:10453000FB68222283F84220FB6800221A63FDF701
:104540001FFD7861FB68FA889A85FB68FA88DA852E
:10455000FB689B68B3F5805F08D1FB681B69002B83
:1045600004D10023FB61BB68BB6103E0BB68FB6156
:104570000023BB6143E03B6800937B69002220215C
:10458000F86800F020FB0346002B01D0032342E033
:10459000FB69002B0CD1FB681B685B689BB2C3F303
:1045A00008039AB2BB691A80BB690233BB611FE082
:1045B000FB689B68B3F5805F07D0FB689B68002BA6
:1045C0000AD1FB681B69002B06D1FB681B685B687E
:1045D000DAB2FB691A7008E0FB681B685B68DBB243
:1045E00003F07F03DAB2FB691A70FB690133FB61E8
:1045F000FB68DB8D9BB2013B9AB2FB68DA85FB68F6
:10460000DB8D9BB2002BB6D1FB68202283F84220C1
:10461000002300E0022318462037BD4680BD80B548
:1046200084B000AFF860B9601346FB80FB6893F874
:104630004230DBB2202B12D1BB68002B02D0FB88AA
:10464000002B01D101230BE0FB6800221A63FB88D9
:104650001A46B968F86800F024FB034600E002231C
:1046600018461037BD4680BD80B5BAB000AF78603F
:104670007B681B681B68C7F8E4307B681B68DB68D5
:10468000C7F8E0307B681B685B69C7F8DC30002343
:10469000C7F8D8300023C7F8D430D7F8E43003F097
:1046A0000F03C7F8D830D7F8D830002B0FD1D7F880
:1046B000E43003F02003002B09D0D7F8E03003F0FA
:1046C0002003002B03D0786800F001FC5BE2D7F8F0
:1046D000D830002B00F0DE80D7F8DC3003F0010387
:1046E000002B06D1D7F8E03003F49073002B00F0D4
:1046F000D180D7F8E43003F00103002B0BD0D7F8BA
:10470000E03003F48073002B05D07B685B6C43F0D2
:1047100001027B685A64D7F8E43003F00403002BED
:104720000BD0D7F8DC3003F00103002B05D07B68F9
:104730005B6C43F002027B685A64D7F8E43003F004
:104740000203002B0BD0D7F8DC3003F00103002B61
:1047500005D07B685B6C43F004027B685A64D7F831
:10476000E43003F00803002B11D0D7F8E03003F059
:104770002003002B05D1D7F8DC3003F00103002B18
:1047800005D07B685B6C43F008027B685A647B68E9
:104790005B6C002B00F0F281D7F8E43003F02003CB
:1047A000002B08D0D7F8E03003F02003002B02D014
:1047B000786800F08CFB7B681B685B6903F0400342
:1047C000002B14BF01230023DBB2C7F8D4307B6871
:1047D0005B6C03F00803002B03D1D7F8D430002B17
:1047E0004FD0786800F096FA7B681B685B6903F02D
:1047F0004003002B41D07B681B681433C7F89C3002
:10480000D7F89C3053E8003FC7F89830D7F8983075
:1048100023F04003C7F8D0307B681B681433D7F807
:10482000D020C7F8A820C7F8A430D7F8A410D7F82C
:10483000A82041E80023C7F8A030D7F8A030002B0B
:10484000D9D17B68DB6B002B13D07B68DB6B7E4A96
:104850005A637B68DB6B1846FDF7E4FC0346002BCC
:1048600016D07B68DB6B5B6B7A68D26B104698471F
:104870000EE0786800F093F90AE0786800F08FF9AC
:1048800006E0786800F08BF97B6800225A6475E1D5
:1048900000BF73E17B681B6B012B40F04F81D7F8A1
:1048A000E43003F01003002B00F04881D7F8E0302B
:1048B00003F01003002B00F041810023BB607B68F4
:1048C0001B681B68BB607B681B685B68BB60BB6860
:1048D0007B681B685B6903F04003002B00F0B68027
:1048E0007B68DB6B1B685B68A7F8BE30B7F8BE302F
:1048F000002B00F045817B689B8DB7F8BE209A4263
:1049000080F03E817B68B7F8BE20DA857B68DB6B80
:104910009B69202B00F088807B681B680C33C7F8EC
:104920008830D7F8883053E8003FC7F88430D7F88C
:10493000843023F48073C7F8B8307B681B680C336D
:10494000D7F8B820C7F89420C7F89030D7F890105F
:10495000D7F8942041E80023C7F88C30D7F88C3082
:10496000002BD9D17B681B6814337B677B6F53E8BE
:10497000003F3B673B6F23F00103C7F8B4307B680F
:104980001B681433D7F8B420C7F88020FB67F96F91
:10499000D7F8802041E80023BB67BB6F002BE1D133
:1049A0007B681B6814333B663B6E53E8003FFB6536
:1049B000FB6D23F04003C7F8B0307B681B681433ED
:1049C000D7F8B020FA66BB66B96EFA6E41E80023EC
:1049D0007B667B6E002BE3D17B68202283F842202C
:1049E0007B6800221A637B681B680C33FB64FB6CDA
:1049F00053E8003FBB64BB6C23F01003C7F8AC3036
:104A00007B681B680C33D7F8AC20BA657B65796D81
:104A1000BA6D41E800233B653B6D002BE3D17B6819
:104A2000DB6B1846FDF7C3FB7B6802225A637B6889
:104A30009A8D7B68DB8D9BB2D31A9BB2194678683E
:104A400000F0B6F89CE000BFD94D00087B689A8D55
:104A50007B68DB8D9BB2D31AA7F8CE307B68DB8DE9
:104A60009BB2002B00F08E80B7F8CE30002B00F008
:104A700089807B681B680C33BB63BB6B53E8003FCA
:104A80007B637B6B23F49073C7F8C8307B681B682B
:104A90000C33D7F8C8207A643B64396C7A6C41E8EF
:104AA0000023FB63FB6B002BE3D17B681B68143393
:104AB0007B627B6A53E8003F3B623B6A23F0010361
:104AC000C7F8C4307B681B681433D7F8C4203A6336
:104AD000FB62F96A3A6B41E80023BB62BB6A002BB8
:104AE000E3D17B68202283F842207B6800221A638E
:104AF0007B681B680C333B613B6953E8003FFB60FC
:104B0000FB6823F01003C7F8C0307B681B680C33C8
:104B1000D7F8C020FA61BB61B969FA6941E800239E
:104B20007B617B69002BE3D17B6802225A63B7F873
:104B3000CE301946786800F03BF823E0D7F8E4302F
:104B400003F08003002B09D0D7F8E03003F0800396
:104B5000002B03D0786800F053F914E0D7F8E43064
:104B600003F04003002B0ED0D7F8E03003F04003F1
:104B7000002B08D0786800F092F904E000BF02E052
:104B800000BF00E000BFE837BD4680BD80B483B001
:104B900000AF786000BF0C37BD4680BC704780B462
:104BA00083B000AF786000BF0C37BD4680BC704753
:104BB00080B483B000AF78600B467B8000BF0C37B9
:104BC000BD4680BC704780B590B000AFF860B9605A
:104BD0003B601346FB7150E0BB6CB3F1FF3F4CD020
:104BE000BB6C002B07D0FDF7CBF902463B68D31A0C
:104BF000BA6C9A4241D2FB681B680C33BB62BB6A39
:104C000053E8003F7B627B6A23F4D073FB63FB684D
:104C10001B680C33FA6B7A633B63396B7A6B41E840
:104C20000023FB62FB6A002BE5D1FB681B68143391
:104C30007B617B6953E8003F3B613B6923F00103E3
:104C4000BB63FB681B681433BA6B3A62FB61F9699A
:104C50003A6A41E80023BB61BB69002BE5D1FB68E0
:104C6000202283F84120FB68202283F84220FB6841
:104C7000002283F8402003230FE0FB681B681A68BA
:104C8000BB681340BA689A420CBF01230023DBB211
:104C90001A46FB799A429FD0002318464037BD46FA
:104CA00080BD80B485B000AFF860B9601346FB806A
:104CB000FB68BA689A62FB68FA889A85FB68FA888A
:104CC000DA85FB6800225A64FB68222283F84220BE
:104CD000FB681B69002B07D0FB681B68DA68FB6860
:104CE0001B6842F48072DA60FB681B685A69FB68D3
:104CF0001B6842F001025A61FB681B68DA68FB68B6
:104D00001B6842F02002DA60002318461437BD46C3
:104D100080BC704780B495B000AF78607B681B683A
:104D20000C337B637B6B53E8003F3B633B6B23F4AB
:104D30009073FB647B681B680C33FA6C3A64FB630A
:104D4000F96B3A6C41E80023BB63BB6B002BE5D1E8
:104D50007B681B6814333B623B6A53E8003FFB618E
:104D6000FB6923F00103BB647B681B681433BA6CD6
:104D7000FA62BB62B96AFA6A41E800237B627B6A25
:104D8000002BE5D17B681B6B012B19D17B681B685D
:104D90000C33FB60FB6853E8003FBB60BB6823F04B
:104DA00010037B647B681B680C337A6CBA617B618F
:104DB0007969BA6941E800233B613B69002BE5D181
:104DC0007B68202283F842207B6800221A6300BFA0
:104DD0005437BD4680BC704780B584B000AF786062
:104DE0007B685B6AFB60FB680022DA85FB68002257
:104DF000DA84F868FFF7D3FE00BF1037BD4680BDE8
:104E000080B485B000AF78607B6893F84130DBB246
:104E1000212B3ED17B689B68B3F5805F14D17B6802
:104E20001B69002B10D17B681B6AFB60FB681B8829
:104E30001A467B681B68C2F308025A607B681B6ACB
:104E40009A1C7B681A6208E07B681B6A591C7A68A6
:104E500011621A787B681B685A607B68DB8C9BB296
:104E6000013B9BB27A681946D184002B0FD17B6835
:104E70001B68DA687B681B6822F08002DA607B6856
:104E80001B68DA687B681B6842F04002DA60002326
:104E900000E0022318461437BD4680BC704780B539
:104EA00082B000AF78607B681B68DA687B681B683B
:104EB00022F04002DA607B68202283F84120786883
:104EC000FFF764FE002318460837BD4680BD80B555
:104ED0008CB000AF78607B6893F84230DBB2222B55
:104EE00040F0AE807B689B68B3F5805F17D17B682C
:104EF0001B69002B13D10023FB627B689B6ABB629A
:104F00007B681B685B689BB2C3F308039AB2BB6AF9
:104F10001A807B689B6A9A1C7B689A6226E07B6891
:104F20009B6AFB620023BB627B689B68B3F5805F72
:104F300007D07B689B68002B0AD17B681B69002B1C
:104F400006D17B681B685B68DAB2FB6A1A7008E0FE
:104F50007B681B685B68DBB203F07F03DAB2FB6A35
:104F60001A707B689B6A5A1C7B689A627B68DB8D2F
:104F70009BB2013B9BB27A681946D185002B5DD16B
:104F80007B681B68DA687B681B6822F02002DA60A5
:104F90007B681B68DA687B681B6822F48072DA60C1
:104FA0007B681B685A697B681B6822F001025A61A2
:104FB0007B68202283F842207B6800225A637B684A
:104FC0001B6B012B35D17B6800221A637B681B6841
:104FD0000C337B617B6953E8003F3B613B6923F005
:104FE00010037B627B681B680C337A6A3A62FB6150
:104FF000F9693A6A41E80023BB61BB69002BE5D13E
:105000007B681B681B6803F01003102B0AD1002378
:10501000FB607B681B681B68FB607B681B685B68C8
:10502000FB60FB687B689B8D19467868FFF7C0FDC5
:1050300002E07868FBF7B8FD002302E0002300E0FF
:10504000022318463037BD4680BD000080B584B0CD
:1050500000AF78607B681B681B6923F440517B6854
:10506000DA687B681B680A431A617B689A687B6808
:105070001B691A437B685B691343BB607B681B68D1
:10508000DB6823F4B05323F00C037A681268B96824
:105090000B43D3607B681B685B6923F440717B68BA
:1050A0009A697B681B680A435A617B681B682C4AB3
:1050B000934203D1FDF7A8FEF86002E0FDF790FEF1
:1050C000F860FA6813469B0013449A001A447B6800
:1050D0005B689B00B2FBF3F3224AA2FB03235B094C
:1050E0001901FA6813469B0013449A001A447B681E
:1050F0005B689B00B2FBF3F21A4BA3FB02035B0954
:10510000642000FB03F3D31A1B013233154AA2FBC0
:1051100003235B0903F0F0031944FA6813469B006C
:1051200013449A001A447B685B689B00B2FBF3F25D
:105130000C4BA3FB02035B09642000FB03F3D31AAF
:105140001B013233074AA2FB03235B0903F00F0262
:105150007B681B680A449A6000BF1037BD4680BD5B
:10516000003801401F85EB5180B582B000AF1C2094
:1051700001F00EFA78607B68002B0AD07B68002271
:105180001A607B680433184600F082F97B680022BD
:105190001A767B6818460837BD4680BD80B590B04A
:1051A00000AFF860B9607A603B60FB687B63002306
:1051B000BB6300233B63FB68002B0AD14FF0500315
:1051C00083F31188BFF36F8FBFF34F8F3B6200BF34
:1051D000FEE7BB6803F07F43002B0AD04FF050037B
:1051E00083F31188BFF36F8FBFF34F8FFB6100BF55
:1051F000FEE7BB68002B0AD14FF0500383F3118800
:10520000BFF36F8FBFF34F8FBB6100BFFEE700F0AE
:1052100073FF0346002B02D1BB6C002B01D101238D
:1052200000E00023002B0AD14FF0500383F31188D4
:10523000BFF36F8FBFF34F8F7B6100BFFEE700F0BE
:1052400015FC7B6B1B68FB623A68B968F86A00F072
:10525000FEF8B862BB6A002B0ED0FB6AFB6300232A
:10526000BB647B68002B28D07B6B1A68BB68DB4370
:105270001A407B6B1A6020E0BB6C002B04D1FB6AE8
:10528000FB6301233B6318E07B68002B03D0BB6BFF
:1052900043F08073BB633B68002B03D0BB6B43F0D0
:1052A0008063BB637B6B181DBA68BB6B1343BA6C1E
:1052B000194600F0A5FD0023FB6300F0E5FB7862D2
:1052C000BB6C002B31D07B6A002B07D1194B4FF000
:1052D00080521A60BFF34F8FBFF36F8F00F02AFF29
:1052E000F863FB6B03F00073002B1AD101F08EF80A
:1052F0007B6B1B68FB633A68B968F86B00F0A7F832
:105300000346002B09D07B68002B06D07B6B1A6804
:10531000BB68DB431A407B6B1A6001233B6301F0DF
:10532000A5F8FB6B23F07F43FB63FB6B184640370C
:10533000BD4680BD04ED00E080B58EB000AF786062
:10534000396000233B637B68BB620023FB627B68A0
:10535000002B0AD14FF0500383F31188BFF36F8FF6
:10536000BFF34F8F3B6100BFFEE73B6803F07F4315
:10537000002B0AD04FF0500383F31188BFF36F8FD7
:10538000BFF34F8FFB6000BFFEE7BB6A04337B6255
:105390007B6A08333B6200F069FB7B6ADB687B63F6
:1053A000BB6A1A683B681A43BB6A1A603CE07B6BB5
:1053B0005B68FB617B6B1B68BB610023FB62BB69A5
:1053C00003F07F437B61BB6923F07F43BB617B6953
:1053D00003F08063002B08D1BB6A1A68BB691340D5
:1053E000002B0BD00123FB6208E0BB6A1A68BB6983
:1053F0001340BA699A4201D10123FB62FB6A002B78
:1054000010D07B6903F08073002B03D03A6BBB692B
:1054100013433B63BB6A1B6843F000731946786B08
:1054200000F02AFDFB697B637A6B3B6A9A42BED12E
:10543000BB6A1A683B6BDB431A40BB6A1A6000F018
:1054400023FBBB6A1B6818463837BD4680BD80B455
:1054500087B000AFF860B9607A6000237B617B6839
:10546000002B07D1FA68BB681340002B0AD0012338
:105470007B6107E0FA68BB681340BA689A4201D1C1
:1054800001237B617B6918461C37BD4680BC704791
:1054900080B483B000AF78607B6803F108027B685A
:1054A0005A607B684FF0FF329A607B6803F1080214
:1054B0007B68DA607B6803F108027B681A617B68AD
:1054C00000221A6000BF0C37BD4680BC704780B414
:1054D00083B000AF78607B6800221A6100BF0C3790
:1054E000BD4680BC704780B485B000AF786039603D
:1054F0007B685B68FB603B68FA685A60FB689A6887
:105500003B689A60FB689B683A685A60FB683A6837
:105510009A603B687A681A617B681B685A1C7B68D2
:105520001A6000BF1437BD4680BC704780B485B098
:1055300000AF786039603B681B68BB60BB68B3F143
:10554000FF3F03D17B681B69FB600CE07B6808337D
:10555000FB6002E0FB685B68FB60FB685B681B68E4
:10556000BA689A42F6D2FB685A683B685A603B6850
:105570005B683A689A603B68FA689A60FB683A68C8
:105580005A603B687A681A617B681B685A1C7B68A2
:105590001A6000BF1437BD4680BC704780B485B028
:1055A00000AF78607B681B69FB607B685B687A682A
:1055B00092689A607B689B687A6852685A60FB6858
:1055C0005B687A689A4203D17B689A68FB685A6084
:1055D0007B6800221A61FB681B685A1EFB681A6010
:1055E000FB681B6818461437BD4680BC704780B501
:1055F0008EB004AFF860B9607A603B607B6B002BC3
:105600000AD14FF0500383F31188BFF36F8FBFF3BC
:105610004F8F3B6200BFFEE7BB6B002B0AD14FF000
:10562000500383F31188BFF36F8FBFF34F8FFB617C
:1056300000BFFEE7B4233B613B69B42B0AD04FF0B7
:10564000500383F31188BFF36F8FBFF34F8FBB619C
:1056500000BFFEE7BB6B002B1ED07B6B002B1BD06B
:10566000BB6B7B627B6A7A6B1A637B6A022283F86C
:10567000B120002303937B6A029307F11403019383
:105680003B6B00933B687A68B968F86800F050F8A3
:10569000786A00F0E3F801E000237B617B6918463B
:1056A0002837BD4680BD80B58CB004AFF860B960C6
:1056B0003B601346FB80FB889B00184600F068FFA8
:1056C00078617B69002B0ED0B42000F061FFF86197
:1056D000FB69002B03D0FB697A691A6305E07869DE
:1056E00001F01AF801E00023FB61FB69002B17D0E1
:1056F000FB69002283F8B120FA8800230393FB6939
:105700000293FB6A0193BB6A00933B68B968F8682F
:1057100000F00EF8F86900F0A1F80123BB6102E087
:105720004FF0FF33BB61BB6918462037BD4680BDD3
:1057300080B588B000AFF860B9607A603B603B6BC1
:105740001A6B7B6803F18043013B9B001344BB61F0
:10575000BB6923F00703BB61BB6903F00703002BA0
:105760000AD04FF0500383F31188BFF36F8FBFF35C
:105770004F8F7B6100BFFEE70023FB6112E0BA6838
:10578000FB69134419783A6BFB69134434330A46B6
:105790001A70BA68FB6913441B78002B06D0FB69AA
:1057A0000133FB61FB690F2BE9D900E000BF3B6BC4
:1057B000002283F84320BB6A062B01D90623BB6273
:1057C0003B6BBA6ADA623B6BBA6A5A643B6B002283
:1057D0009A643B6B04331846FFF779FE3B6B183332
:1057E0001846FFF774FE3B6B3A6B1A61BB6AC3F154
:1057F00007023B6B9A613B6B3A6B5A623B6B002230
:10580000C3F8AC203B6B002283F8B0203B6B4C33D9
:1058100060220021184601F0B9F83B6B0C4A1A656A
:105820003B6B0C4A5A653B6B0B4A9A653A68F968C0
:10583000B86900F0FDFC02463B6B1A60FB6A002B66
:1058400002D0FB6A3A6B1A6000BF2037BD4680BDAC
:10585000A86B0008C86B0008886B000880B582B090
:1058600000AF786000F0D2FD2A4B1B680133294A53
:105870001360294B1B68002B09D1274A7B681360F2
:10588000244B1B68012B10D100F070FB0DE0234B63
:105890001B68002B09D1204B1B68DA6A7B68DB6A26
:1058A0009A4202D81C4A7B6813601D4B1B68013367
:1058B0001B4A13607B68DB6A01229A40194B1B6804
:1058C0001343184A13607B68DA6A13469B0013443B
:1058D0009B00154A1A447B68043319461046FFF7AB
:1058E00002FE00F0C3FD0D4B1B68002B0ED00A4BCF
:1058F0001B68DA6A7B68DB6A9A4207D20B4B4FF06F
:1059000080521A60BFF34F8FBFF36F8F00BF08370D
:10591000BD4680BDE8050020E8040020F405002015
:1059200004060020F0050020EC04002004ED00E057
:1059300080B584B000AF78600023FB607B68002BEB
:1059400017D0134B1B68002B0AD04FF0500383F382
:105950001188BFF36F8FBFF34F8FBB6000BFFEE7AF
:1059600000F084F80021786800F0FCFB00F08CF86F
:10597000F860FB68002B07D1064B4FF080521A608D
:10598000BFF34F8FBFF36F8F00BF1037BD4680BD91
:105990001006002004ED00E080B58AB004AF0023BB
:1059A000BB6000237B603A46391D07F108031846A7
:1059B000FBF7BEFB39687B68BA680292019300234B
:1059C000009300230A4621492148FFF710FE0346B1
:1059D000204A13601F4B1B68002B02D001237B6100
:1059E00001E000237B617B69012B1BD14FF0500349
:1059F00083F31188BFF36F8FBFF34F8F3B6100BFFD
:105A0000154B1B684C33154A1360154B4FF0FF3292
:105A10001A60144B01221A60134B00221A6000F026
:105A200083FC0EE07B69B3F1FF3F0AD14FF05003D6
:105A300083F31188BFF36F8FBFF34F8FFB6000BFFD
:105A4000FEE700BF1837BD4680BD00BF546B00089D
:105A50003D5F00080C060020E80400201400002030
:105A600008060020F4050020EC05002080B400AFFB
:105A7000044B1B680133034A136000BFBD4680BC62
:105A8000704700BF1006002080B584B000AF00232F
:105A9000FB600023BB60414B1B68002B0AD14FF019
:105AA000500383F31188BFF36F8FBFF34F8F3B60B9
:105AB00000BFFEE700F0AAFC384B1B68013B374AE9
:105AC0001360364B1B68002B61D1354B1B68002BD4
:105AD0005DD02EE0334BDB68DB68FB60FB6818337E
